{
  "_format": "hh-sol-artifact-1",
  "contractName": "DEX",
  "sourceName": "contracts/Dex.sol",
  "abi": [
    {
      "inputs": [
        {
          "internalType": "uint256",
          "name": "_price",
          "type": "uint256"
        },
        {
          "internalType": "address",
          "name": "_token",
          "type": "address"
        }
      ],
      "stateMutability": "nonpayable",
      "type": "constructor"
    },
    {
      "inputs": [],
      "name": "EthCouldNotBeSent",
      "type": "error"
    },
    {
      "inputs": [],
      "name": "NotEnoughEther",
      "type": "error"
    },
    {
      "inputs": [],
      "name": "NotEnoughTokens",
      "type": "error"
    },
    {
      "inputs": [],
      "name": "NotRightPrice",
      "type": "error"
    },
    {
      "inputs": [],
      "name": "OnlyOwnerCanPerformThisAction",
      "type": "error"
    },
    {
      "inputs": [
        {
          "internalType": "address",
          "name": "token",
          "type": "address"
        }
      ],
      "name": "SafeERC20FailedOperation",
      "type": "error"
    },
    {
      "inputs": [
        {
          "internalType": "uint256",
          "name": "numTokens",
          "type": "uint256"
        }
      ],
      "name": "buy",
      "outputs": [],
      "stateMutability": "payable",
      "type": "function"
    },
    {
      "inputs": [
        {
          "internalType": "uint256",
          "name": "numTokens",
          "type": "uint256"
        }
      ],
      "name": "getPrice",
      "outputs": [
        {
          "internalType": "uint256",
          "name": "",
          "type": "uint256"
        }
      ],
      "stateMutability": "view",
      "type": "function"
    },
    {
      "inputs": [
        {
          "internalType": "uint256",
          "name": "numTokens",
          "type": "uint256"
        }
      ],
      "name": "provideLiquidity",
      "outputs": [],
      "stateMutability": "nonpayable",
      "type": "function"
    },
    {
      "inputs": [
        {
          "internalType": "uint256",
          "name": "amount",
          "type": "uint256"
        }
      ],
      "name": "withdraw",
      "outputs": [],
      "stateMutability": "nonpayable",
      "type": "function"
    }
  ],
  "bytecode": "0x60a060405234801561001057600080fd5b50604051610a7c380380610a7c8339818101604052810190610032919061014d565b3373ffffffffffffffffffffffffffffffffffffffff1660808173ffffffffffffffffffffffffffffffffffffffff168152505081600181905550806000806101000a81548173ffffffffffffffffffffffffffffffffffffffff021916908373ffffffffffffffffffffffffffffffffffffffff160217905550505061018d565b600080fd5b6000819050919050565b6100cc816100b9565b81146100d757600080fd5b50565b6000815190506100e9816100c3565b92915050565b600073ffffffffffffffffffffffffffffffffffffffff82169050919050565b600061011a826100ef565b9050919050565b61012a8161010f565b811461013557600080fd5b50565b60008151905061014781610121565b92915050565b60008060408385031215610164576101636100b4565b5b6000610172858286016100da565b925050602061018385828601610138565b9150509250929050565b6080516108ce6101ae6000396000818160f1015261030801526108ce6000f3fe60806040526004361061003f5760003560e01c80632e1a7d4d14610044578063d96a094a1461006d578063e757223014610089578063eb521a4c146100c6575b600080fd5b34801561005057600080fd5b5061006b6004803603810190610066919061068c565b6100ef565b005b6100876004803603810190610082919061068c565b610255565b005b34801561009557600080fd5b506100b060048036038101906100ab919061068c565b6102ef565b6040516100bd91906106c8565b60405180910390f35b3480156100d257600080fd5b506100ed60048036038101906100e8919061068c565b610306565b005b7f000000000000000000000000000000000000000000000000000000000000000073ffffffffffffffffffffffffffffffffffffffff163373ffffffffffffffffffffffffffffffffffffffff1614610174576040517f89e6b4bd00000000000000000000000000000000000000000000000000000000815260040160405180910390fd5b804710156101ae576040517f8a0d377900000000000000000000000000000000000000000000000000000000815260040160405180910390fd5b60003373ffffffffffffffffffffffffffffffffffffffff16826040516101d490610714565b60006040518083038185875af1925050503d8060008114610211576040519150601f19603f3d011682016040523d82523d6000602084013e610216565b606091505b5050905080610251576040517f8715a92c00000000000000000000000000000000000000000000000000000000815260040160405180910390fd5b5050565b6000600154826102659190610758565b90508034146102a0576040517f0b8671b400000000000000000000000000000000000000000000000000000000815260040160405180910390fd5b6102eb338360008054906101000a900473ffffffffffffffffffffffffffffffffffffffff1673ffffffffffffffffffffffffffffffffffffffff166104ae9092919063ffffffff16565b5050565b6000600154826102ff9190610758565b9050919050565b7f000000000000000000000000000000000000000000000000000000000000000073ffffffffffffffffffffffffffffffffffffffff163373ffffffffffffffffffffffffffffffffffffffff161461038b576040517f89e6b4bd00000000000000000000000000000000000000000000000000000000815260040160405180910390fd5b8060008054906101000a900473ffffffffffffffffffffffffffffffffffffffff1673ffffffffffffffffffffffffffffffffffffffff166370a08231336040518263ffffffff1660e01b81526004016103e591906107db565b602060405180830381865afa158015610402573d6000803e3d6000fd5b505050506040513d601f19601f82011682018060405250810190610426919061080b565b101561045e576040517f22bbb43c00000000000000000000000000000000000000000000000000000000815260040160405180910390fd5b6104ab33308360008054906101000a900473ffffffffffffffffffffffffffffffffffffffff1673ffffffffffffffffffffffffffffffffffffffff1661052d909392919063ffffffff16565b50565b610528838473ffffffffffffffffffffffffffffffffffffffff1663a9059cbb85856040516024016104e1929190610838565b604051602081830303815290604052915060e01b6020820180517bffffffffffffffffffffffffffffffffffffffffffffffffffffffff83818316178352505050506105af565b505050565b6105a9848573ffffffffffffffffffffffffffffffffffffffff166323b872dd86868660405160240161056293929190610861565b604051602081830303815290604052915060e01b6020820180517bffffffffffffffffffffffffffffffffffffffffffffffffffffffff83818316178352505050506105af565b50505050565b600080602060008451602086016000885af1806105d2576040513d6000823e3d81fd5b3d9250600051915050600082146105ed576001811415610609565b60008473ffffffffffffffffffffffffffffffffffffffff163b145b1561064b57836040517f5274afe700000000000000000000000000000000000000000000000000000000815260040161064291906107db565b60405180910390fd5b50505050565b600080fd5b6000819050919050565b61066981610656565b811461067457600080fd5b50565b60008135905061068681610660565b92915050565b6000602082840312156106a2576106a1610651565b5b60006106b084828501610677565b91505092915050565b6106c281610656565b82525050565b60006020820190506106dd60008301846106b9565b92915050565b600081905092915050565b50565b60006106fe6000836106e3565b9150610709826106ee565b600082019050919050565b600061071f826106f1565b9150819050919050565b7f4e487b7100000000000000000000000000000000000000000000000000000000600052601160045260246000fd5b600061076382610656565b915061076e83610656565b925082820261077c81610656565b9150828204841483151761079357610792610729565b5b5092915050565b600073ffffffffffffffffffffffffffffffffffffffff82169050919050565b60006107c58261079a565b9050919050565b6107d5816107ba565b82525050565b60006020820190506107f060008301846107cc565b92915050565b60008151905061080581610660565b92915050565b60006020828403121561082157610820610651565b5b600061082f848285016107f6565b91505092915050565b600060408201905061084d60008301856107cc565b61085a60208301846106b9565b9392505050565b600060608201905061087660008301866107cc565b61088360208301856107cc565b61089060408301846106b9565b94935050505056fea26469706673582212206d61beaf6197631152c8eb3f348913dc2a4c236597b2650edfc7aacf670e125f64736f6c634300081c0033",
  "linkReferences": {},
  "deployedLinkReferences": {}
}